:040000005EEF00F0BF
:10000800FACFBAF0FBCFBBF0E9CFBCF00EEF07F0A8
:10001800D8CF1FF0E8CF20F0E0CF21F0FACF22F0C0
:10002800FBCF23F0E9CF24F0EACF25F0E1CF26F08B
:10003800E2CF27F0D9CF28F0DACF29F0F3CF2AF092
:10004800F4CF2BF0F6CF2CF0F7CF2DF0F8CF2EF021
:10005800F5CF2FF09EA003D09E9054EC0BF09EAAF3
:1000680003D09E9AC4EC06F09EB89DEC09F02FC010
:10007800F5FF2EC0F8FF2DC0F7FF2CC0F6FF2BC0F0
:10008800F4FF2AC0F3FF29C0DAFF28C0D9FF27C030
:10009800E2FF26C0E1FF25C0EAFF24C0E9FF23C034
:1000A800FBFF22C0FAFF21C0E0FF20C0E8FF1FC00D
:1000B800D8FF10007AEF09F0A1D1000120EE0DF071
:1000C8000001CD51D9260001CE51DA22300EDF6E63
:1000D800000120EE1CF00001CD51D9260001CE51BF
:1000E800DA22DF500001B16F0001D890B135FE0B64
:1000F800C96E1200C5BC71D0000120EE1BF00001D2
:10010800CD51D9260001CE51DA22DF500001B16F5E
:10011800000120EE1AF00001CD51D9260001CE5180
:10012800DA22DF500001B15DD8B033D0000120EEF3
:100138001BF00001CD51D9260001CE51DA22DF5043
:100148000001B16F0001B151010D100EF326000E30
:10015800F422F3500001CD25D96EF4500001CE21D0
:10016800DA6EDF50C96E000120EE1BF00001CD51A0
:10017800D9260001CE51DA22DF2A000120EE0DF047
:100188000001CD51D9260001CE51DA22300EDF6EA2
:1001980012002B0E0001AD6F000E0001AF6F000EB4
:1001A8000001AE6F000E3DEC0BF0000120EE1AF0DE
:1001B8000001CD51D9260001CE51DA22000EDF6EA2
:1001C800000120EE0DF00001CD51D9260001CE51DD
:1001D800DA22050EDF6EC58412002C0E0001AD6F09
:1001E800000E0001AF6F000E0001AE6F000E3DEC77
:1001F8000BF0000120EE0DF00001CD51D9260001D1
:10020800CE51DA22050EDF6EC58412002B0E0001D6
:10021800AD6F000E0001AF6F000E0001AE6F000E53
:100228003DEC0BF0000120EE0DF00001CD51D92678
:100238000001CE51DA22050EDF6E1200000120EE19
:100248000DF00001CD51D9260001CE51DA22330E2E
:10025800DF6E000120EE1CF00001CD51D92600010F
:10026800CE51DA22DF500001B16F0001D880B135DC
:10027800C96E1200C5BC0DD0000120EE0DF00001C2
:10028800CD51D9260001CE51DA22220EDF6EC58665
:100298001200C7A002D08A8001D08A902E0E0001D9
:1002A800AD6F000E0001AF6F000E0001AE6F000EC3
:1002B8003DEC0BF0000120EE0DF00001CD51D926E8
:1002C8000001CE51DA22050EDF6EC584120000014E
:1002D80020EE0BF00001CD51D9260001CE51DA22D3
:1002E800DF500001B16F0001B151010DF350000161
:1002F800CD25D96EF4500001CE21DA6EC9CFDFFFCB
:10030800000120EE0BF00001CD51D9260001CE519D
:10031800DA22DF2A000120EE0DF00001CD51D926A6
:100328000001CE51DA22210EDF6E000120EE0BF023
:100338000001CD51D9260001CE51DA22DF5000014B
:10034800B16F000120EE0AF00001CD51D92600015D
:10035800CE51DA22DF500001B15DD8B003D0C59A82
:10036800C5881200C58AC5881200000120EE0BF06E
:100378000001CD51D9260001CE51DA22DF5000010B
:10038800B16F000120EE0AF00001CD51D92600011D
:10039800CE51DA22DF500001B15DD8B00DD0000196
:1003A80020EE0DF00001CD51D9260001CE51DA2200
:1003B800220EDF6EC58612002D0E0001AD6F000102
:1003C800CEC0AFF00001CDC0AEF0000120EE0AF0C3
:1003D8000001CD51D9260001CE51DA22DF503DEC83
:1003E8000BF0000120EE0DF00001CD51D9260001DF
:1003F800CE51DA22050EDF6EC5841200000120EE10
:100408000DF00001CD51D9260001CE51DA22DF507E
:10041800100AD8B452D6010AD8B4F8D6310AD8B4DA
:100428000DD7010AD8B4A1D7030AD8B450D7120AF5
:10043800D8B460D6030AD8A412001CD7E00ED36E35
:100448009B8C0201020E0001C96F02011A0E000105
:10045800C86FA3EC0BF00201020E0001C96F020184
:10046800210E0001C86F0AEC06F00201020E00011D
:10047800C96F0201180E0001C86FE1EC0BF0AEEC79
:1004880008F0000E936E000E8A6E960E7EEC0BF04E
:10049800000E0001C86F9B0E3CEC0AF09F909F9ADB
:1004A8009F869F989D86000E0001C96F190E000156
:1004B800C86F6C0E4DEC07F015EC0CF0939093920E
:1004C80096909692C1EC0BF0EEEC07F00201020E4A
:1004D8000101B76F02011F0E0101B66F0201020E82
:1004E8000101B96F02010D0E0101B86F0A0E75EC1A
:1004F8000AF00201206F020120BF7FD06CD0FE0EEF
:1005080002010D6F100E02010E6F200E02010F6F17
:10051800300E0201106F400E0201116F500E0201E1
:10052800126F600E0201136F700E0201146F800EBD
:100538000201156F020E0201166F4D0E56EC09F0FE
:100548000A0E06EC09F00201020E0101A36F020176
:10055800020E0101A26F020101011FC2A4F10101F3
:10056800A56B020120510101A66F0101A76B0101D2
:10057800A6BFA7070201020E0101A96F02010D0E15
:100588000101A86FD8EC0BF038D00201205101010D
:10059800B76F0101B86B0101B7BFB8070201020EBE
:1005A8000101BA6F02010D0E0101B96FC4EC0AF026
:1005B8000DC20CF222D0020E0201206F300E020191
:1005C8000D6F000E02010E6F18D002010C51A50A22
:1005D800D8B4F1D712D002011F510A0AD8B48FD764
:1005E800220AD8B4D2D7010AD8B4E2D7030AD8B4B9
:1005F800ECD7070AD8B4C9D71F0A0201020E0101B5
:10060800B76F02011F0E0101B66F0201020E010150
:10061800B96F02010D0E0101B86F0A0E5AEC0AF00B
:100628000201206F020120BF4FD771D00201020ED4
:100638000101B86F0201180E0101B76F0201010133
:100648001FC2B9F10101BA6B020120510101BB6F50
:100658000101BC6B0101BBBFBC070201020E010115
:10066800BE6F02010D0E0101BD6F7FEC08F02CD7A3
:1006780002010D51A50AD8A428D0110E0201046F59
:10068800220E0201056F330E0201066F440E0201AD
:10069800076F550E0201086F660E0201096F770E8B
:1006A80002010A6F880E02010B6F000E0101B86F7C
:1006B800080E0101B76F0201020E0101BA6F0201B3
:1006C800040E0101B96FC4EC0AF00201020E010127
:1006D800A36F0201000E0101A26F020101011FC2F6
:1006E800A4F10101A56B020120510101A66F0101CE
:1006F800A76B0101A6BFA7070201020E0101A96F9E
:1007080002010D0E0101A86FABEC0AF0DDD6020163
:100718001F510B0AD8B48AD7150AD8B4A9D7010A29
:10072800D8B4A6D7D1D6010120EE35F00101A851E1
:10073800D9260101A951DA22DF500101B16F010167
:10074800B1510D0DF3500101A8250101B46FF4500A
:100758000101A9210101B56F010EB4C1D9FFB5C1CD
:10076800DAFFDF626DD0010120EE01F00101B45122
:10077800D9260101B551DA22DF500101AA5DD8B0AE
:1007880002D0FD0E1200010120EE01F00101B4516A
:10079800D9260101B551DA22DF500101AF6F0101FD
:1007A800AF510101B26F0101B36B0101AEC1A3F1F9
:1007B8000101ADC1A2F1030E0101B4250101AF6F22
:1007C800000E0101B5210101B06FAFC1A4F1B0C1A4
:1007D800A5F1B2C1A6F1B3C1A7F1DAEC08F00101A5
:1007E80020EE35F00101A851D9260101A951DA22DC
:1007F800010110EE35F00101A851E1260101A951CE
:10080800E222E7500101AF6F0101AF29030BDF6E50
:10081800010120EE02F00101B451D9260101B551C0
:10082800DA22ABC1E1FFACC1E2FFDFCFE7FFB4C121
:10083800D9FFB5C1DAFF000EDF6E0101B251120017
:10084800FC0E1200000120EE35F00001A151D9265E
:100858000001A251DA22DF500001AA6F0001AA515B
:100868000D0DF3500001A1250001AD6FF4500001FA
:10087800A2210001AE6F010EADC0D9FFAEC0DAFFF4
:10088800DF626DD0000120EE01F00001AD51D926E4
:100898000001AE51DA22DF500001A35DD8B002D0CA
:1008A800FD0E1200000120EE01F00001AD51D92625
:1008B8000001AE51DA22DF500001A86F0001A851F3
:1008C8000001AB6F0001AC6B0001A7C098F00001FC
:1008D800A6C097F0030E0001AD250001A86F000E19
:1008E8000001AE210001A96FA8C099F0A9C09AF033
:1008F800ABC09BF0ACC09CF02EEC09F0000120EEE0
:1009080035F00001A151D9260001A251DA220001D7
:1009180010EE35F00001A151E1260001A251E222BA
:10092800E7500001A86F0001A829030BDF6E000142
:1009380020EE02F00001AD51D9260001AE51DA22B5
:10094800A4C0E1FFA5C0E2FFDFCFE7FFADC0D9FF3C
:10095800AEC0DAFF000EDF6E0001AB511200FC0ED4
:1009680012000101AAC1AEF10101AF6B010120EE35
:1009780034F00101A851D9260101A951DA22DF502A
:100988000101B06F0101B0510D0DF3500101A8250F
:100998000101B16FF4500101A9210101B26FB1C188
:1009A800D9FFB2C1DAFFDF50D8B402D0FF0E12006F
:1009B800010120EE01F00101B151D9260101B25126
:1009C800DA220101AAC1DFFF010120EE02F00101D4
:1009D800B151D9260101B251DA220101ABC1DFFFC1
:1009E800030E0101B1250101A26F000E0101B22120
:1009F8000101A36F0101ADC1A5F10101ACC1A4F1D1
:100A0800AEC1A6F1AFC1A7F1DAEC08F0010120EE02
:100A180034F00101A851D9260101A951DA220101B6
:100A280010EE34F00101A851E1260101A951E2229A
:100A3800E7500001CC6F0001CC29030BDF6EB1C178
:100A4800D9FFB2C1DAFF010EDF6E010E12000001FC
:100A5800A3C0A8F00001A96B000120EE34F000014A
:100A6800A151D9260001A251DA22DF500001AA6F54
:100A78000001AA510D0DF3500001A1250001AB6F33
:100A8800F4500001A2210001AC6FABC0D9FFACC08B
:100A9800DAFFDF50D8B402D0FF0E1200000120EEBA
:100AA80001F00001AB51D9260001AC51DA22000156
:100AB800A3C0DFFF000120EE02F00001AB51D926F0
:100AC8000001AC51DA220001A4C0DFFF030E0001CF
:100AD800AB250001976F000E0001AC210001986F53
:100AE8000001A6C09AF00001A5C099F0A8C09BF02B
:100AF800A9C09CF02EEC09F0000120EE34F00001B2
:100B0800A151D9260001A251DA22000110EE34F0D9
:100B18000001A151E1260001A251E222E7500001A3
:100B2800A76F0001A729030BDF6EABC0D9FFACC0CC
:100B3800DAFF010EDF6E010E120020EE35F00B50C9
:100B4800D9260C50DA22DF50146E14500D0DF350D4
:100B58000B24176EF4500C20186E010E17C0D9FF25
:100B680018C0DAFFDF6250D020EE01F01750D92606
:100B78001850DA22DF500D5CD8B002D0FD0E1200FA
:100B880020EE01F01750D9261850DA22DF50126EE5
:100B98001250156E166A11C002F010C001F0030E53
:100BA8001724126E000E1820136E12C003F013C023
:100BB80004F015C005F016C006F0C0EC09F020EEF0
:100BC80035F00B50D9260C50DA2210EE35F00B50C8
:100BD800E1260C50E222E750126E1228030BDF6E5A
:100BE80020EE02F01750D9261850DA220EC0E1FF85
:100BF8000FC0E2FFDFCFE7FF17C0D9FF18C0DAFF49
:100C0800000EDF6E15501200FC0E12000001C9C064
:100C1800CEF00001C8C0CDF0CDC0D9FFCEC0DAFFFC
:100C2800000EDF6E000120EE01F00001CD51D92643
:100C38000001CE51DA22000EDF6E000120EE02F034
:100C48000001CD51D9260001CE51DA22000EDF6E07
:100C5800000120EE0AF00001CD51D9260001CE5145
:100C6800DA22000EDF6E000120EE0CF00001CD51FB
:100C7800D9260001CE51DA22000EDF6E000120EEE7
:100C88000DF00001CD51D9260001CE51DA22050E12
:100C9800DF6E000120EE0FF00001CD51D9260001D2
:100CA800CE51DA22000EDF6E000120EE28F000019E
:100CB800CD51D9260001CE51DA22000EDF6E000197
:100CC80020EE27F00001CD51D9260001CE51DA22BD
:100CD800000EDF6E12000DC012F0136A20EE34F021
:100CE8000B50D9260C50DA22DF50146E14500D0D1B
:100CF800F3500B24156EF4500C20166E15C0D9FF56
:100D080016C0DAFFDF50D8B402D0FF0E120020EE72
:100D180001F01550D9261650DA220DC0DFFF20EE5B
:100D280002F01550D9261650DA220EC0DFFF030E46
:100D38001524016E000E1620026E10C004F00FC0BC
:100D480003F012C005F013C006F0C0EC09F020EE65
:100D580034F00B50D9260C50DA2210EE34F00B5038
:100D6800E1260C50E222E750116E1128030BDF6ECA
:100D780015C0D9FF16C0DAFF010EDF6E010E120092
:100D88009EAA3AD020EE04F04350D9264450DA22E5
:100D9800DF501B6E1B50010DF3504324D96EF450E5
:100DA8004420DA6EB2EC0BF0DF6E20EE04F0435014
:100DB800D9264450DA22DF2A20EE04F04350D926FF
:100DC8004450DA22040EDF6217D01F0E176E44C09B
:100DD80019F043C018F020EE04F04350D9264450CF
:100DE800DA22DF5091EC0BF020EE04F04350D926C4
:100DF8004450DA22000EDF6E36A61200AC98AC889A
:100E08001E0E176E000E196E000E186E000E91EC75
:100E18000BF01200EACFBDF0E1CFBEF0E2CFBFF099
:100E2800D9CFC0F0DACFC1F0F3CFC2F0F4CFC3F01E
:100E3800F6CFC4F0F7CFC5F0F8CFC6F0F5CFC7F0BE
:100E48009EA603D09E9660EC00F0F2A403D0F29424
:100E580085EC07F04FEC08F0C7C0F5FFC6C0F8FFF7
:100E6800C5C0F7FFC4C0F6FFC3C0F4FFC2C0F3FF9C
:100E7800C1C0DAFFC0C0D9FFBFC0E2FFBEC0E1FFFA
:100E8800BDC0EAFFBCC0E9FFBBC0FBFFBAC0FAFFA8
:100E980011000101A26F000EAD6E000EAC6E0101D3
:100EA800A2B1AD880101A2A302D0AD8CAC8C010126
:100EB800A2B5AD8E0101A2A702D0AC8801D0AC8A40
:100EC8000101A2B9AD840101A2BBAC860101A2ADAA
:100ED80002D09D8A01D09D9A0101A2AF02D09D88BF
:100EE80001D09D98C8C0B0FF0001C9C0CAF0CAC0EF
:100EF800CBF00001CC6B0001CB517F6EAD8AAC8E7C
:100F08001200000E0001986F000E0001976FFCECB4
:100F18000BF00001000E0001B06F0001B60E0001D9
:100F2800AF6F0001000E0001B26F0001B80E0001A2
:100F3800B16F020E90EC0AF00001B46F0001B56BBE
:100F48000001B4BFB5070001B451020AB511D8A415
:100F580012000A0E0001AD6F0001000E0001AF6F14
:100F68000001B80E0001AE6F020E3DEC0BF012004E
:100F7800000120EE34F00001C851D9260001C95102
:100F8800DA22000EDF6E000120EE35F00001C851B4
:100F9800D9260001C951DA22000EDF6E000E0001C9
:100FA800CA6F030E0001CA6501D012000001CA51C0
:100FB8000D0DF3500001C825D96EF4500001C92168
:100FC800DA6E000EDF6E0001CA2B030E0001CA653F
:100FD800EDD712001EEC0AF00101A3510101A21184
:100FE800D8B41200010E0001606F0101010E00016A
:100FF800C96F01016C0E0001C86FDDEC0AF0000931
:10100800D8B404D0000E0001606F12000001000E79
:101018000001C96F0001610E0001C86FDDEC0AF024
:101028000009D8B404D0000E0001606F12000A0E47
:10103800CEEC0BF0DAD70001CB51CA11D8B426D0C8
:10104800010E0001CC6F06D00001D890CA37CB370B
:101058000001CC2B0001CBAFF7D70001CA5100012A
:10106800C85D0001CB510001C959D8A008D00001C2
:10107800CA510001C85F0001CB510001C95B0001E2
:10108800D890CB33CA330001CC2FE7D7C8C0C8F0FB
:10109800C9C0C9F012000001606701D01200FFEC5E
:1010A80009F000019A5100019911D8A412000DEC21
:1010B8000CF00001985100019711D8B412000101F9
:1010C800010E0001986F01016C0E0001976FF6EC9C
:1010D8000AF00009D8A412000001000E0001986F60
:1010E8000001610E0001976FF6EC0AF00009D8B410
:1010F80019EC0CF01200B7C1D9FFB8C1DAFFDE2A2B
:10110800000EDD22B7C1D9FFB8C1DAFF0001DECF7A
:10111800C8F00001DDCFC9F0000E0001CB6F0A0E48
:101128000001CA6F1FEC08F00001C851090A00014C
:10113800C911D8A41200140E0101B36F0101B8C17E
:10114800B5F10101B7C1B4F1020E0FEC0BF00101CA
:10115800BF6F1200000E0001606F0001000E000159
:10116800C96F0001610E0001C86FBCEC07F00101F6
:10117800010E0001C96F01016C0E0001C86FBCECC3
:1011880007F00101010E0001C96F0101360E0001CF
:10119800C86FBCEC07F00101010E0001C96F010125
:1011A800000E0001C86FBCEC07F01200010100013D
:1011B800A5C1CBF001010001A4C1CAF001010001E1
:1011C800A3C1C9F001010001A2C1C8F010D0CAC072
:1011D800D9FFCBC0DAFFC8C0E1FFC9C0E2FFDFCF4B
:1011E800E7FF0001CA4BCB2B0001C84BC92B0101FB
:1011F800A607D8A0A7070101A629D8B4A729D8B45B
:101208001200E5D70001C86FC7B41200000120EE34
:101218000AF00001CD51D9260001CE51DA22000191
:10122800C8C0DFFF000120EE0BF00001CD51D92628
:101238000001CE51DA22000EDF6EC580000120EEDB
:101248000DF00001CD51D9260001CE51DA22200E31
:10125800DF6E120000019AC0A0F0000199C09FF053
:10126800000198C09EF0000197C09DF010D09FC06B
:10127800D9FFA0C0DAFF9DC0E1FF9EC0E2FFDFCF2B
:10128800E7FF00019F4BA02B00019D4B9E2B000107
:101298009B07D8A09C0700019B29D8B49C29D8B4E7
:1012A8001200E5D70001C86F640E376E000120EE0A
:1012B8001CF00001CD51D9260001CE51DA220001DF
:1012C800C8C0DFFF000EC66E000EC56E000EC76EEA
:1012D800770EC86EC650F00B0809C66EC68A800E17
:1012E800C76E9388938A8A888A8A120001EE00F072
:1012F800A20EEE6AE806FDE100EE60F0370EEE6A37
:10130800E806FDE100EE30F0130EEE6AE806FDE1B6
:10131800380EF66E180EF76E000EF86E0900F5CF4F
:1013280045F00900F5CF46F0000EF86E000122EFF7
:1013380002F09EA812009DA81200000E1A6E1F0E41
:10134800196E000E1C6E380E1B6E0A0E6AEC0BF03E
:101358001E6E380E3424D96E000E3520DA6EDF503A
:10136800AE6E344A352A3350351802E132503418FB
:10137800D8A412009D98120004C00AF003C009F016
:1013880002C008F001C007F00ED009C0D9FF0AC09A
:10139800DAFF07C0E1FF08C0E2FFDFCFE7FF094A35
:1013A8000A2A074A082A0506D8A006060528D8B436
:1013B8000628D8B41200E9D7F2AC07D0000E000115
:1013C800CB6F000E0001CA6F120005EC0CF0000193
:1013D800C9510001C811D8B407D0000E0001CB6F65
:1013E800000E0001CA6F1200000E0001CB6F010E43
:1013F8000001CA6F1200F2AC07D0000E00019A6F0C
:10140800000E0001996F12000DEC0CF000019851CC
:1014180000019711D8B407D0000E00019A6F000E92
:101428000001996F1200000E00019A6F010E000171
:10143800996F1200E0EC09F00001CB510001CA11CC
:10144800D8A40FD005EC0CF00001C9510001C81157
:10145800D8A407D0000E0101A36F010E0101A26FED
:101468001200000E0101A36F000E0101A26F12000D
:101478000001CA6F0001C851F30B9A6ECAC0C9F0C7
:101488007F0E0001C9170001D890C935CD6E000E36
:10149800CF6E000ECE6E9E900001CAAF02D09D8026
:1014A80001D09D909ABE9A86CD8012000001CC6F23
:1014B8000001000E0101A96F0001610E0101A86F72
:1014C800CCC0AAF10101B7C1ACF10101B6C1ABF1C1
:1014D8000101B9C1AEF10101B8C1ADF197EC03F05A
:1014E80012000001CC6F0101010E0101A96F010179
:1014F8006C0E0101A86FCCC0AAF10101B7C1ACF113
:101508000101B6C1ABF10101B9C1AEF10101B8C128
:10151800ADF197EC03F012000001B36F0101010E69
:101528000001A26F0101000E0001A16FB3C0A3F07A
:101538000001B0C0A5F00001AFC0A4F00001B2C026
:10154800A7F00001B1C0A6F026EC04F012000101DA
:10155800A4511E0AA511D8B412000101A4511F0AF2
:10156800A511D8A412000101A6510101A825D96E20
:101578000101A7510101A921DA6E000EDF6E1200E8
:101588001F0E0101B36F0101BAC1B5F10101B9C163
:10159800B4F10101B75126EC0BF00101BB6FB7C1E3
:1015A80032F0B8C133F0000E356E000E346E9D88EF
:1015B8001200000120EE35F00001C851D9260001C3
:1015C800C951DA22DF500001CA6F0001CA510D0D5E
:1015D800F3500001C825D96EF4500001C921DA6E14
:1015E800DF501200000120EE35F000019751D92696
:1015F80000019851DA22DF500001996F00019951DA
:101608000D0DF35000019725D96EF4500001982173
:10161800DA6EDF5012000101B66F0101010E0101FF
:10162800A96F0101000E0101A86FB6C1AAF1B3C1EB
:10163800ABF10101B5C1ADF10101B4C1ACF1B5EC3B
:1016480004F012000101B66F0101010E0101A96F3A
:101658000101360E0101A86FB6C1AAF1B3C1ABF101
:101668000101B5C1ADF10101B4C1ACF1B5EC04F0B3
:1016780012000001B06F0101010E0001A26F01010B
:101688006C0E0001A16FB0C0A3F0ADC0A4F00001C2
:10169800AFC0A6F00001AEC0A5F02BEC05F012001B
:1016A800F3EC0BF001C01BF002C01CF00B0E176E20
:1016B800000E196E000E186E000E91EC0BF0000E65
:1016C800026E000E016EEAEC0BF012001D6E0101B5
:1016D800010E0C6E0101360E0B6E1DC00DF01AC006
:1016E8000FF019C00EF01CC011F01BC010F0A1ECD7
:1016F80005F012000001C86F0001C8517F0BD56EBC
:10170800000ED76E000ED66EF2940001C8AF02D05C
:10171800F28A01D0F29AD58E12001A6E0001000EDC
:101728000C6E0001610E0B6E1AC00DF017C00EF0A2
:1017380019C010F018C00FF06FEC06F0120000018D
:10174800C9C044F00001C8C043F020EE04F0435083
:10175800D9264450DA22000EDF6E1200F20E361639
:10176800ACAC03D03690ACB03680ACB43684ACB2F6
:101778003686AFCF01F001501200AC8E948E949C47
:10178800AD847E86000E7F6ECF0EB06EAD8AAD98AA
:10179800AC8812000001C86FFA0E00F0E82EFDD7E1
:1017A8000001C82FF9D7120001010001A9C1C9F031
:1017B80001010001A8C1C8F01200C8C0D9FFC9C002
:1017C800DAFF000EDE6E000EDD6E120001C003F0BF
:1017D80002C004F004C0CFFF03C0CEFF1200CECF7A
:1017E80003F0CFCF04F003C001F004C002F01200F0
:1017F80097C099F098C09AF09AC0D7FF99C0D6FFC1
:101808001200000EF2AE010E0001C86F0001C96B94
:101818001200000EF2AE010E0001976F0001986BE6
:101828001200D08EF28EF28C1200D38E03001200BA
:02183800170097
:08FFF8008AF795FFF2F9FFF111
:00000001FF
